{
  "contractName": "Camps",
  "abi": [
    {
      "anonymous": false,
      "inputs": [
        {
          "indexed": false,
          "internalType": "address",
          "name": "_camp",
          "type": "address"
        }
      ],
      "name": "targetReachedForCamp",
      "type": "event"
    },
    {
      "inputs": [
        {
          "internalType": "address",
          "name": "",
          "type": "address"
        }
      ],
      "name": "camps",
      "outputs": [
        {
          "internalType": "bool",
          "name": "campExists",
          "type": "bool"
        },
        {
          "internalType": "uint256",
          "name": "fundingRaised",
          "type": "uint256"
        },
        {
          "internalType": "uint256",
          "name": "target",
          "type": "uint256"
        },
        {
          "internalType": "uint256",
          "name": "equity",
          "type": "uint256"
        },
        {
          "internalType": "bool",
          "name": "targetReached",
          "type": "bool"
        }
      ],
      "stateMutability": "view",
      "type": "function"
    },
    {
      "inputs": [
        {
          "internalType": "address",
          "name": "",
          "type": "address"
        },
        {
          "internalType": "address",
          "name": "",
          "type": "address"
        }
      ],
      "name": "funding",
      "outputs": [
        {
          "internalType": "uint256",
          "name": "",
          "type": "uint256"
        }
      ],
      "stateMutability": "view",
      "type": "function"
    },
    {
      "inputs": [
        {
          "internalType": "address",
          "name": "_camp",
          "type": "address"
        },
        {
          "internalType": "uint256",
          "name": "_target",
          "type": "uint256"
        },
        {
          "internalType": "uint256",
          "name": "_equity",
          "type": "uint256"
        }
      ],
      "name": "createCamp",
      "outputs": [],
      "stateMutability": "nonpayable",
      "type": "function"
    },
    {
      "inputs": [
        {
          "internalType": "address",
          "name": "_angel",
          "type": "address"
        },
        {
          "internalType": "address",
          "name": "_camp",
          "type": "address"
        },
        {
          "internalType": "uint256",
          "name": "_amount",
          "type": "uint256"
        }
      ],
      "name": "buyEquity",
      "outputs": [],
      "stateMutability": "nonpayable",
      "type": "function"
    },
    {
      "inputs": [
        {
          "internalType": "address",
          "name": "_camp",
          "type": "address"
        }
      ],
      "name": "getAngelListLength",
      "outputs": [
        {
          "internalType": "uint256",
          "name": "",
          "type": "uint256"
        }
      ],
      "stateMutability": "view",
      "type": "function"
    },
    {
      "inputs": [
        {
          "internalType": "address",
          "name": "_camp",
          "type": "address"
        }
      ],
      "name": "getAngelList",
      "outputs": [
        {
          "internalType": "address[]",
          "name": "",
          "type": "address[]"
        }
      ],
      "stateMutability": "view",
      "type": "function"
    },
    {
      "inputs": [
        {
          "internalType": "address",
          "name": "_col",
          "type": "address"
        },
        {
          "internalType": "address",
          "name": "_camp",
          "type": "address"
        },
        {
          "internalType": "string",
          "name": "_position",
          "type": "string"
        },
        {
          "internalType": "uint256",
          "name": "_amount",
          "type": "uint256"
        }
      ],
      "name": "collab",
      "outputs": [],
      "stateMutability": "nonpayable",
      "type": "function"
    },
    {
      "inputs": [
        {
          "internalType": "address",
          "name": "_camp",
          "type": "address"
        }
      ],
      "name": "getCollabDetails",
      "outputs": [
        {
          "components": [
            {
              "internalType": "address",
              "name": "colAddress",
              "type": "address"
            },
            {
              "internalType": "uint256",
              "name": "amount",
              "type": "uint256"
            },
            {
              "internalType": "string",
              "name": "position",
              "type": "string"
            }
          ],
          "internalType": "struct Camps.CollaboratorsList[]",
          "name": "",
          "type": "tuple[]"
        }
      ],
      "stateMutability": "view",
      "type": "function"
    }
  ],
  "bytecode": "0x608060405234801561000f575f80fd5b50610b4d8061001d5f395ff3fe608060405234801561000f575f80fd5b5060043610610085575f3560e01c80636e5cda3f116100585780636e5cda3f14610148578063b7f50b1714610168578063d4ca1d84146101a1578063f9add81e146101c8575f80fd5b80632c93f98814610089578063343ca73d146100b257806338ef1599146100c757806344431c77146100da575b5f80fd5b61009c610097366004610706565b6101db565b6040516100a99190610726565b60405180910390f35b6100c56100c0366004610772565b610251565b005b6100c56100d53660046107a2565b6102f8565b61011c6100e8366004610706565b600160208190525f91825260409091208054918101546004820154600583015460069093015460ff94851694929391921685565b60408051951515865260208601949094529284019190915260608301521515608082015260a0016100a9565b61015b610156366004610706565b6104dc565b6040516100a991906107db565b610193610176366004610706565b6001600160a01b03165f9081526001602052604090206002015490565b6040519081526020016100a9565b6101936101af366004610899565b5f60208181529281526040808220909352908152205481565b6100c56101d63660046108de565b610602565b6001600160a01b0381165f9081526001602090815260409182902060020180548351818402810184019094528084526060939283018282801561024557602002820191905f5260205f20905b81546001600160a01b03168152600190910190602001808311610227575b50505050509050919050565b6001600160a01b0383165f9081526001602052604090205460ff16156102b45760405162461bcd60e51b815260206004820152601360248201527243616d7020616c72656164792065786973747360681b60448201526064015b60405180910390fd5b6001600160a01b039092165f908152600160208190526040909120805460ff1990811690921781556004810192909255600582019290925560060180549091169055565b6001600160a01b0382165f9081526001602081905260409091205460ff16151514801561034057506001600160a01b0382165f9081526001602052604090206006015460ff16155b61037d5760405162461bcd60e51b815260206004820152600e60248201526d10d85b5c081b9bdd08199bdd5b9960921b60448201526064016102ab565b6001600160a01b0382165f90815260016020819052604090912060048101549101546103aa9083906109b1565b106103d8576001600160a01b0382165f908152600160208190526040909120600601805460ff191690911790555b6001600160a01b038083165f90815260208181526040808320938716835292905220546104069082906109b1565b6001600160a01b038084165f818152602081815260408083209489168352938152838220949094559081526001928390522001546104459082906109b1565b6001600160a01b038381165f8181526001602081815260408320808301969096556002860180549283018155835282200180546001600160a01b0319169388169390931790925590526006015460ff16156104d7576040516001600160a01b03831681527fa13ac8def81f33998d29b46ff52805497ccd12bc15d76006d7ec0e5982f93efc9060200160405180910390a15b505050565b6001600160a01b0381165f908152600160209081526040808320600301805482518185028101850190935280835260609492939192909184015b828210156105f7575f848152602090819020604080516060810182526003860290920180546001600160a01b0316835260018101549383019390935260028301805492939291840191610568906109d6565b80601f0160208091040260200160405190810160405280929190818152602001828054610594906109d6565b80156105df5780601f106105b6576101008083540402835291602001916105df565b820191905f5260205f20905b8154815290600101906020018083116105c257829003601f168201915b50505050508152505081526020019060010190610516565b505050509050919050565b6001600160a01b0383165f9081526001602081905260409091205460ff161515146106605760405162461bcd60e51b815260206004820152600e60248201526d10d85b5c081b9bdd08199bdd5b9960921b60448201526064016102ab565b6001600160a01b038381165f90815260016020818152604080842081516060810183528a871681528084018881529281018981526003928301805480880182559088529490962081519490920290910180546001600160a01b031916939096169290921785555191840191909155905190919060028201906106e29082610a5b565b50505050505050565b80356001600160a01b0381168114610701575f80fd5b919050565b5f60208284031215610716575f80fd5b61071f826106eb565b9392505050565b602080825282518282018190525f9190848201906040850190845b818110156107665783516001600160a01b031683529284019291840191600101610741565b50909695505050505050565b5f805f60608486031215610784575f80fd5b61078d846106eb565b95602085013595506040909401359392505050565b5f805f606084860312156107b4575f80fd5b6107bd846106eb565b92506107cb602085016106eb565b9150604084013590509250925092565b5f6020808301818452808551808352604092508286019150828160051b8701018488015f805b8481101561088a57898403603f19018652825180516001600160a01b0316855288810151898601528701516060888601819052815190860181905283905b8082101561085d578282018b015187830160800152908a019061083f565b8681016080908101869052988b0198601f909101601f191690960190950194505091870191600101610801565b50919998505050505050505050565b5f80604083850312156108aa575f80fd5b6108b3836106eb565b91506108c1602084016106eb565b90509250929050565b634e487b7160e01b5f52604160045260245ffd5b5f805f80608085870312156108f1575f80fd5b6108fa856106eb565b9350610908602086016106eb565b9250604085013567ffffffffffffffff80821115610924575f80fd5b818701915087601f830112610937575f80fd5b813581811115610949576109496108ca565b604051601f8201601f19908116603f01168101908382118183101715610971576109716108ca565b816040528281528a6020848701011115610989575f80fd5b826020860160208301375f928101602001929092525095989497509495606001359450505050565b808201808211156109d057634e487b7160e01b5f52601160045260245ffd5b92915050565b600181811c908216806109ea57607f821691505b602082108103610a0857634e487b7160e01b5f52602260045260245ffd5b50919050565b601f8211156104d7575f81815260208120601f850160051c81016020861015610a345750805b601f850160051c820191505b81811015610a5357828155600101610a40565b505050505050565b815167ffffffffffffffff811115610a7557610a756108ca565b610a8981610a8384546109d6565b84610a0e565b602080601f831160018114610abc575f8415610aa55750858301515b5f19600386901b1c1916600185901b178555610a53565b5f85815260208120601f198616915b82811015610aea57888601518255948401946001909101908401610acb565b5085821015610b0757878501515f19600388901b60f8161c191681555b5050505050600190811b0190555056fea26469706673582212207f41926b2ee2b48c7b9207e31a533c951f165d11349949fb008c32b1228eee9864736f6c63430008150033",
  "immutableReferences": {},
  "source": "// SPDX-License-Identifier: GPL-3.0\r\n\r\npragma solidity ^0.8.0;\r\n\r\n// Camp - A camp that is created by a Creative ( OP - Original Posters ) on Collective to raise funding\r\n\r\n// Angel - Angels are the users/investors who buy equity in exchange of CTV - CollectiveToken\r\n\r\n// Col - Collaborator who collaborates in a camp in exchange of CTV\r\n\r\ncontract Camps {\r\n    \r\n    // m => (camp_address => m (angel_address => investment_amount)) \r\n    mapping(address => mapping(address => uint)) public funding;\r\n    \r\n    \r\n    mapping(address => CampDetails) public camps;\r\n    \r\n    \r\n    // Struct to save collaborator details\r\n    \r\n    struct CollaboratorsList {\r\n        address colAddress;\r\n        uint amount;\r\n        string position;\r\n    }\r\n    \r\n    \r\n    // Camp details struct\r\n    \r\n    struct CampDetails{\r\n        bool campExists;\r\n        uint fundingRaised;\r\n        address[] angelList;\r\n        CollaboratorsList[] colList;\r\n        uint target;\r\n        uint equity;\r\n        bool targetReached;\r\n    }\r\n    \r\n    \r\n    \r\n    \r\n    // Create a new camp on Collective\r\n    \r\n    function createCamp(address _camp, uint _target, uint _equity) public {\r\n        require(camps[_camp].campExists == false,\"Camp already exists\");\r\n        camps[_camp].campExists = true;\r\n        camps[_camp].target = _target;\r\n        camps[_camp].equity = _equity;\r\n        camps[_camp].targetReached = false;\r\n    }\r\n    \r\n    \r\n    // Emit event when the camp target is reached\r\n    \r\n    event targetReachedForCamp(address _camp);\r\n    \r\n    \r\n    // Buying equity in the camp\r\n    \r\n    function buyEquity(address _angel,address _camp,uint _amount) public {\r\n        require(camps[_camp].campExists == true && camps[_camp].targetReached == false,'Camp not found');\r\n        if(camps[_camp].fundingRaised + _amount >= camps[_camp].target){\r\n            camps[_camp].targetReached = true;\r\n        }\r\n        funding[_camp][_angel] = funding[_camp][_angel] + _amount;\r\n        camps[_camp].fundingRaised = camps[_camp].fundingRaised + _amount;\r\n        camps[_camp].angelList.push(_angel);\r\n        \r\n\r\n        if(camps[_camp].targetReached){\r\n            emit targetReachedForCamp( _camp);\r\n        }\r\n        \r\n    }\r\n    \r\n\r\n    // get the total number of Angels who bought equity in a camp \r\n    // can also be used for fetching the total number of investments\r\n    \r\n    function getAngelListLength(address _camp) public view returns(uint){\r\n        return camps[_camp].angelList.length;\r\n    }\r\n    \r\n    \r\n     // get the list of Angels who bought equity in a camp \r\n    \r\n    function getAngelList(address _camp) public view returns(address[] memory){\r\n        return camps[_camp].angelList;\r\n    }\r\n    \r\n    \r\n    // Collaborate in a camp\r\n    \r\n    function collab(address _col,address _camp,string memory _position,uint _amount) public {\r\n        require(camps[_camp].campExists == true,'Camp not found');\r\n        camps[_camp].colList.push(CollaboratorsList({\r\n            colAddress : _col,\r\n            amount : _amount,\r\n            position : _position\r\n        }));\r\n    }\r\n    \r\n    \r\n    // Get collab details for a camp\r\n    \r\n    function getCollabDetails(address _camp) public view returns (CollaboratorsList[] memory){\r\n        return camps[_camp].colList;\r\n    }\r\n    \r\n}\r\n",
  "sourcePath": "C:\\Users\\lenovo\\Desktop\\ZC\\CrowdFundingApp\\backend\\contracts\\Camps.sol",
  "compiler": {
    "name": "solc",
    "version": "0.8.21+commit.d9974bed.Emscripten.clang"
  },
  "schemaVersion": "3.4.16",
  "updatedAt": "2025-02-14T23:40:56.141Z",
  "devdoc": {
    "kind": "dev",
    "methods": {},
    "version": 1
  },
  "userdoc": {
    "kind": "user",
    "methods": {},
    "version": 1
  }
}